{"contracts/SecureLand.sol":{"SecureLand":{"abi":[{"inputs":[],"stateMutability":"nonpayable","type":"constructor"},{"anonymous":false,"inputs":[{"indexed":true,"internalType":"string","name":"documentId","type":"string"},{"indexed":true,"internalType":"bytes32","name":"hash","type":"bytes32"},{"indexed":true,"internalType":"address","name":"recorder","type":"address"},{"indexed":false,"internalType":"uint256","name":"timestamp","type":"uint256"}],"name":"DocumentRecorded","type":"event"},{"anonymous":false,"inputs":[{"indexed":true,"internalType":"string","name":"documentId","type":"string"},{"indexed":true,"internalType":"bytes32","name":"hash","type":"bytes32"},{"indexed":true,"internalType":"address","name":"verifier","type":"address"},{"indexed":false,"internalType":"uint256","name":"timestamp","type":"uint256"}],"name":"DocumentVerified","type":"event"},{"anonymous":false,"inputs":[{"indexed":true,"internalType":"address","name":"official","type":"address"},{"indexed":true,"internalType":"address","name":"addedBy","type":"address"},{"indexed":false,"internalType":"uint256","name":"timestamp","type":"uint256"}],"name":"OfficialAdded","type":"event"},{"anonymous":false,"inputs":[{"indexed":true,"internalType":"address","name":"official","type":"address"},{"indexed":true,"internalType":"address","name":"removedBy","type":"address"},{"indexed":false,"internalType":"uint256","name":"timestamp","type":"uint256"}],"name":"OfficialRemoved","type":"event"},{"inputs":[{"internalType":"address","name":"user","type":"address"}],"name":"addAuthorizedUser","outputs":[],"stateMutability":"nonpayable","type":"function"},{"inputs":[{"internalType":"address","name":"official","type":"address"}],"name":"addOfficial","outputs":[],"stateMutability":"nonpayable","type":"function"},{"inputs":[{"internalType":"address","name":"","type":"address"}],"name":"authorizedUsers","outputs":[{"internalType":"bool","name":"","type":"bool"}],"stateMutability":"view","type":"function"},{"inputs":[{"internalType":"string","name":"","type":"string"}],"name":"documentExists","outputs":[{"internalType":"bool","name":"","type":"bool"}],"stateMutability":"view","type":"function"},{"inputs":[{"internalType":"string","name":"documentId","type":"string"}],"name":"documentExistsCheck","outputs":[{"internalType":"bool","name":"","type":"bool"}],"stateMutability":"view","type":"function"},{"inputs":[{"internalType":"string","name":"","type":"string"}],"name":"documentHashes","outputs":[{"internalType":"bytes32","name":"","type":"bytes32"}],"stateMutability":"view","type":"function"},{"inputs":[{"internalType":"string","name":"","type":"string"}],"name":"documentRecorders","outputs":[{"internalType":"address","name":"","type":"address"}],"stateMutability":"view","type":"function"},{"inputs":[{"internalType":"string","name":"","type":"string"}],"name":"documentTimestamps","outputs":[{"internalType":"uint256","name":"","type":"uint256"}],"stateMutability":"view","type":"function"},{"inputs":[],"name":"emergencyPause","outputs":[],"stateMutability":"nonpayable","type":"function"},{"inputs":[],"name":"getContractInfo","outputs":[{"internalType":"address","name":"contractOwner","type":"address"},{"internalType":"address","name":"contractAddress","type":"address"},{"internalType":"uint256","name":"blockNumber","type":"uint256"}],"stateMutability":"view","type":"function"},{"inputs":[{"internalType":"string","name":"documentId","type":"string"}],"name":"getDocumentHash","outputs":[{"internalType":"bytes32","name":"","type":"bytes32"}],"stateMutability":"view","type":"function"},{"inputs":[{"internalType":"string","name":"documentId","type":"string"}],"name":"getDocumentMetadata","outputs":[{"internalType":"bytes32","name":"hash","type":"bytes32"},{"internalType":"uint256","name":"timestamp","type":"uint256"},{"internalType":"address","name":"recorder","type":"address"}],"stateMutability":"view","type":"function"},{"inputs":[],"name":"getTotalDocuments","outputs":[{"internalType":"uint256","name":"","type":"uint256"}],"stateMutability":"view","type":"function"},{"inputs":[{"internalType":"address","name":"user","type":"address"}],"name":"isAuthorized","outputs":[{"internalType":"bool","name":"","type":"bool"}],"stateMutability":"view","type":"function"},{"inputs":[{"internalType":"address","name":"user","type":"address"}],"name":"isOfficial","outputs":[{"internalType":"bool","name":"","type":"bool"}],"stateMutability":"view","type":"function"},{"inputs":[{"internalType":"address","name":"","type":"address"}],"name":"officials","outputs":[{"internalType":"bool","name":"","type":"bool"}],"stateMutability":"view","type":"function"},{"inputs":[],"name":"owner","outputs":[{"internalType":"address","name":"","type":"address"}],"stateMutability":"view","type":"function"},{"inputs":[{"internalType":"string","name":"documentId","type":"string"},{"internalType":"bytes32","name":"hash","type":"bytes32"}],"name":"recordDocumentHash","outputs":[],"stateMutability":"nonpayable","type":"function"},{"inputs":[{"internalType":"address","name":"user","type":"address"}],"name":"removeAuthorizedUser","outputs":[],"stateMutability":"nonpayable","type":"function"},{"inputs":[{"internalType":"address","name":"official","type":"address"}],"name":"removeOfficial","outputs":[],"stateMutability":"nonpayable","type":"function"},{"inputs":[{"internalType":"address","name":"newOwner","type":"address"}],"name":"transferOwnership","outputs":[],"stateMutability":"nonpayable","type":"function"},{"inputs":[{"internalType":"string","name":"documentId","type":"string"},{"internalType":"bytes32","name":"hash","type":"bytes32"}],"name":"verifyDocumentHash","outputs":[{"internalType":"bool","name":"","type":"bool"}],"stateMutability":"view","type":"function"}],"evm":{"bytecode":{"linkReferences":{},"object":"608060405234801561001057600080fd5b50600080546001600160a01b0319163390811782558152600560209081526040808320805460ff1990811660019081179092556006909352922080549091169091179055610f14806100636000396000f3fe608060405234801561001057600080fd5b50600436106101425760003560e01c8063a9307df5116100b8578063bb6ccd941161007c578063bb6ccd9414610376578063bed5352214610389578063d93321ef1461039c578063e90e7ad4146103bf578063f2fde38b146103c6578063fe9fbb80146103d957600080fd5b8063a9307df5146102d2578063ac840db0146102e5578063b08bf568146102f8578063b5efdbe21461030b578063b94c67041461033f57600080fd5b80634fea49541161010a5780634fea49541461022657806351858e271461023957806377b81aac146102415780637cc1f8671461026d57806389fabc80146102945780638da5cb5b146102a757600080fd5b8063177d2a74146101475780631828983a1461015c5780633026785f146101945780633df77011146101c25780634d17857f146101fb575b600080fd5b61015a610155366004610cb8565b610405565b005b61017f61016a366004610cb8565b60066020526000908152604090205460ff1681565b60405190151581526020015b60405180910390f35b61017f6101a2366004610d8b565b805160208183018101805160028252928201919093012091525460ff1681565b6101ed6101d0366004610d8b565b805160208183018101805160038252928201919093012091525481565b60405190815260200161018b565b6101ed610209366004610d8b565b805160208183018101805160018252928201919093012091525481565b61015a610234366004610cb8565b610482565b61015a6105ed565b61017f61024f366004610cb8565b6001600160a01b031660009081526005602052604090205460ff1690565b600054604080516001600160a01b039092168252306020830152439082015260600161018b565b61015a6102a2366004610cb8565b610619565b6000546102ba906001600160a01b031681565b6040516001600160a01b03909116815260200161018b565b61017f6102e0366004610dc8565b61068a565b61015a6102f3366004610cb8565b6106f4565b61015a610306366004610dc8565b61080e565b6102ba610319366004610d8b565b80516020818301810180516004825292820191909301209152546001600160a01b031681565b61035261034d366004610d8b565b610a43565b6040805193845260208401929092526001600160a01b03169082015260600161018b565b6101ed610384366004610d8b565b610afc565b61017f610397366004610d8b565b610b63565b61017f6103aa366004610cb8565b60056020526000908152604090205460ff1681565b60006101ed565b61015a6103d4366004610cb8565b610b8e565b61017f6103e7366004610cb8565b6001600160a01b031660009081526006602052604090205460ff1690565b6000546001600160a01b031633146104385760405162461bcd60e51b815260040161042f90610e0d565b60405180910390fd5b6001600160a01b03811661045e5760405162461bcd60e51b815260040161042f90610e4f565b6001600160a01b03166000908152600660205260409020805460ff19166001179055565b6000546001600160a01b031633146104ac5760405162461bcd60e51b815260040161042f90610e0d565b6001600160a01b0381166104d25760405162461bcd60e51b815260040161042f90610e4f565b6001600160a01b03811660009081526005602052604090205460ff1661052c5760405162461bcd60e51b815260206004820152600f60248201526e139bdd08185b881bd9999a58da585b608a1b604482015260640161042f565b6000546001600160a01b03908116908216036105805760405162461bcd60e51b815260206004820152601360248201527221b0b73737ba103932b6b7bb329037bbb732b960691b604482015260640161042f565b6001600160a01b0381166000818152600560209081526040808320805460ff199081169091556006835292819020805490931690925590514281523392917f6e5aad67f2b9d7840f6ffb940f351962d8ecc8ab2127c3971ece106ae91ef6c891015b60405180910390a350565b6000546001600160a01b031633146106175760405162461bcd60e51b815260040161042f90610e0d565b565b6000546001600160a01b031633146106435760405162461bcd60e51b815260040161042f90610e0d565b6001600160a01b0381166106695760405162461bcd60e51b815260040161042f90610e4f565b6001600160a01b03166000908152600660205260409020805460ff19169055565b600060028360405161069c9190610e78565b9081526040519081900360200190205460ff166106cb5760405162461bcd60e51b815260040161042f90610ea7565b816001846040516106dc9190610e78565b90815260200160405180910390205414905092915050565b6000546001600160a01b0316331461071e5760405162461bcd60e51b815260040161042f90610e0d565b6001600160a01b0381166107445760405162461bcd60e51b815260040161042f90610e4f565b6001600160a01b03811660009081526005602052604090205460ff16156107a35760405162461bcd60e51b8152602060048201526013602482015272105b1c9958591e48185b881bd9999a58da585b606a1b604482015260640161042f565b6001600160a01b03811660008181526005602090815260408083208054600160ff199182168117909255600684529382902080549094161790925590514281523392917fbae69e687193701a035224740de1573deb6db1011f61cbaa973b6452f5d78aba91016105e2565b3360009081526005602052604090205460ff168061083657506000546001600160a01b031633145b6108915760405162461bcd60e51b815260206004820152602660248201527f4f6e6c79206f6666696369616c732063616e20706572666f726d20746869732060448201526530b1ba34b7b760d11b606482015260840161042f565b6002826040516108a19190610e78565b9081526040519081900360200190205460ff16156109015760405162461bcd60e51b815260206004820152601760248201527f446f63756d656e7420616c726561647920657869737473000000000000000000604482015260640161042f565b8061093d5760405162461bcd60e51b815260206004820152600c60248201526b092dcecc2d8d2c840d0c2e6d60a31b604482015260640161042f565b8060018360405161094e9190610e78565b90815260200160405180910390208190555060016002836040516109729190610e78565b908152604051908190036020018120805492151560ff199093169290921790915542906003906109a3908590610e78565b908152602001604051809103902081905550336004836040516109c69190610e78565b90815260405190819003602001812080546001600160a01b03939093166001600160a01b03199093169290921790915533908290610a05908590610e78565b604051908190038120428252907f428c9b1f891e75bbbd77fc22237e9a953f0e793de64cc68070a7c322033425639060200160405180910390a45050565b6000806000600284604051610a589190610e78565b9081526040519081900360200190205460ff16610a875760405162461bcd60e51b815260040161042f90610ea7565b600184604051610a979190610e78565b908152602001604051809103902054600385604051610ab69190610e78565b908152602001604051809103902054600486604051610ad59190610e78565b9081526040519081900360200190205491945092506001600160a01b031690509193909250565b6000600282604051610b0e9190610e78565b9081526040519081900360200190205460ff16610b3d5760405162461bcd60e51b815260040161042f90610ea7565b600182604051610b4d9190610e78565b9081526020016040518091039020549050919050565b6000600282604051610b759190610e78565b9081526040519081900360200190205460ff1692915050565b6000546001600160a01b03163314610bb85760405162461bcd60e51b815260040161042f90610e0d565b6001600160a01b038116610bde5760405162461bcd60e51b815260040161042f90610e4f565b6000546001600160a01b0390811690821603610c305760405162461bcd60e51b815260206004820152601160248201527020b63932b0b23c903a34329037bbb732b960791b604482015260640161042f565b600080546001600160a01b031981166001600160a01b038481169182178455818452600560209081526040808620805460ff1990811660019081179092556006845296829020805490971617909555935142815292169283927fbae69e687193701a035224740de1573deb6db1011f61cbaa973b6452f5d78aba910160405180910390a35050565b600060208284031215610cca57600080fd5b81356001600160a01b0381168114610ce157600080fd5b9392505050565b634e487b7160e01b600052604160045260246000fd5b600082601f830112610d0f57600080fd5b813567ffffffffffffffff80821115610d2a57610d2a610ce8565b604051601f8301601f19908116603f01168101908282118183101715610d5257610d52610ce8565b81604052838152866020858801011115610d6b57600080fd5b836020870160208301376000602085830101528094505050505092915050565b600060208284031215610d9d57600080fd5b813567ffffffffffffffff811115610db457600080fd5b610dc084828501610cfe565b949350505050565b60008060408385031215610ddb57600080fd5b823567ffffffffffffffff811115610df257600080fd5b610dfe85828601610cfe565b95602094909401359450505050565b60208082526022908201527f4f6e6c79206f776e65722063616e20706572666f726d2074686973206163746960408201526137b760f11b606082015260800190565b6020808252600f908201526e496e76616c6964206164647265737360881b604082015260600190565b6000825160005b81811015610e995760208186018101518583015201610e7f565b506000920191825250919050565b60208082526017908201527f446f63756d656e7420646f6573206e6f7420657869737400000000000000000060408201526060019056fea26469706673582212204d33655cdf6728566c06e5ee3f54e3ca311912173e6e1466d07dea2728f1234f64736f6c63430008130033","opcodes":"PUSH1 0x80 PUSH1 0x40 MSTORE CALLVALUE DUP1 ISZERO PUSH2 0x10 JUMPI PUSH1 0x0 DUP1 REVERT JUMPDEST POP PUSH1 0x0 DUP1 SLOAD PUSH1 0x1 PUSH1 0x1 PUSH1 0xA0 SHL SUB NOT AND CALLER SWAP1 DUP2 OR DUP3 SSTORE DUP2 MSTORE PUSH1 0x5 PUSH1 0x20 SWAP1 DUP2 MSTORE PUSH1 0x40 DUP1 DUP4 KECCAK256 DUP1 SLOAD PUSH1 0xFF NOT SWAP1 DUP2 AND PUSH1 0x1 SWAP1 DUP2 OR SWAP1 SWAP3 SSTORE PUSH1 0x6 SWAP1 SWAP4 MSTORE SWAP3 KECCAK256 DUP1 SLOAD SWAP1 SWAP2 AND SWAP1 SWAP2 OR SWAP1 SSTORE PUSH2 0xF14 DUP1 PUSH2 0x63 PUSH1 0x0 CODECOPY PUSH1 0x0 RETURN INVALID PUSH1 0x80 PUSH1 0x40 MSTORE CALLVALUE DUP1 ISZERO PUSH2 0x10 JUMPI PUSH1 0x0 DUP1 REVERT JUMPDEST POP PUSH1 0x4 CALLDATASIZE LT PUSH2 0x142 JUMPI PUSH1 0x0 CALLDATALOAD PUSH1 0xE0 SHR DUP1 PUSH4 0xA9307DF5 GT PUSH2 0xB8 JUMPI DUP1 PUSH4 0xBB6CCD94 GT PUSH2 0x7C JUMPI DUP1 PUSH4 0xBB6CCD94 EQ PUSH2 0x376 JUMPI DUP1 PUSH4 0xBED53522 EQ PUSH2 0x389 JUMPI DUP1 PUSH4 0xD93321EF EQ PUSH2 0x39C JUMPI DUP1 PUSH4 0xE90E7AD4 EQ PUSH2 0x3BF JUMPI DUP1 PUSH4 0xF2FDE38B EQ PUSH2 0x3C6 JUMPI DUP1 PUSH4 0xFE9FBB80 EQ PUSH2 0x3D9 JUMPI PUSH1 0x0 DUP1 REVERT JUMPDEST DUP1 PUSH4 0xA9307DF5 EQ PUSH2 0x2D2 JUMPI DUP1 PUSH4 0xAC840DB0 EQ PUSH2 0x2E5 JUMPI DUP1 PUSH4 0xB08BF568 EQ PUSH2 0x2F8 JUMPI DUP1 PUSH4 0xB5EFDBE2 EQ PUSH2 0x30B JUMPI DUP1 PUSH4 0xB94C6704 EQ PUSH2 0x33F JUMPI PUSH1 0x0 DUP1 REVERT JUMPDEST DUP1 PUSH4 0x4FEA4954 GT PUSH2 0x10A JUMPI DUP1 PUSH4 0x4FEA4954 EQ PUSH2 0x226 JUMPI DUP1 PUSH4 0x51858E27 EQ PUSH2 0x239 JUMPI DUP1 PUSH4 0x77B81AAC EQ PUSH2 0x241 JUMPI DUP1 PUSH4 0x7CC1F867 EQ PUSH2 0x26D JUMPI DUP1 PUSH4 0x89FABC80 EQ PUSH2 0x294 JUMPI DUP1 PUSH4 0x8DA5CB5B EQ PUSH2 0x2A7 JUMPI PUSH1 0x0 DUP1 REVERT JUMPDEST DUP1 PUSH4 0x177D2A74 EQ PUSH2 0x147 JUMPI DUP1 PUSH4 0x1828983A EQ PUSH2 0x15C JUMPI DUP1 PUSH4 0x3026785F EQ PUSH2 0x194 JUMPI DUP1 PUSH4 0x3DF77011 EQ PUSH2 0x1C2 JUMPI DUP1 PUSH4 0x4D17857F EQ PUSH2 0x1FB JUMPI JUMPDEST PUSH1 0x0 DUP1 REVERT JUMPDEST PUSH2 0x15A PUSH2 0x155 CALLDATASIZE PUSH1 0x4 PUSH2 0xCB8 JUMP JUMPDEST PUSH2 0x405 JUMP JUMPDEST STOP JUMPDEST PUSH2 0x17F PUSH2 0x16A CALLDATASIZE PUSH1 0x4 PUSH2 0xCB8 JUMP JUMPDEST PUSH1 0x6 PUSH1 0x20 MSTORE PUSH1 0x0 SWAP1 DUP2 MSTORE PUSH1 0x40 SWAP1 KECCAK256 SLOAD PUSH1 0xFF AND DUP2 JUMP JUMPDEST PUSH1 0x40 MLOAD SWAP1 ISZERO ISZERO DUP2 MSTORE PUSH1 0x20 ADD JUMPDEST PUSH1 0x40 MLOAD DUP1 SWAP2 SUB SWAP1 RETURN JUMPDEST PUSH2 0x17F PUSH2 0x1A2 CALLDATASIZE PUSH1 0x4 PUSH2 0xD8B JUMP JUMPDEST DUP1 MLOAD PUSH1 0x20 DUP2 DUP4 ADD DUP2 ADD DUP1 MLOAD PUSH1 0x2 DUP3 MSTORE SWAP3 DUP3 ADD SWAP2 SWAP1 SWAP4 ADD KECCAK256 SWAP2 MSTORE SLOAD PUSH1 0xFF AND DUP2 JUMP JUMPDEST PUSH2 0x1ED PUSH2 0x1D0 CALLDATASIZE PUSH1 0x4 PUSH2 0xD8B JUMP JUMPDEST DUP1 MLOAD PUSH1 0x20 DUP2 DUP4 ADD DUP2 ADD DUP1 MLOAD PUSH1 0x3 DUP3 MSTORE SWAP3 DUP3 ADD SWAP2 SWAP1 SWAP4 ADD KECCAK256 SWAP2 MSTORE SLOAD DUP2 JUMP JUMPDEST PUSH1 0x40 MLOAD SWAP1 DUP2 MSTORE PUSH1 0x20 ADD PUSH2 0x18B JUMP JUMPDEST PUSH2 0x1ED PUSH2 0x209 CALLDATASIZE PUSH1 0x4 PUSH2 0xD8B JUMP JUMPDEST DUP1 MLOAD PUSH1 0x20 DUP2 DUP4 ADD DUP2 ADD DUP1 MLOAD PUSH1 0x1 DUP3 MSTORE SWAP3 DUP3 ADD SWAP2 SWAP1 SWAP4 ADD KECCAK256 SWAP2 MSTORE SLOAD DUP2 JUMP JUMPDEST PUSH2 0x15A PUSH2 0x234 CALLDATASIZE PUSH1 0x4 PUSH2 0xCB8 JUMP JUMPDEST PUSH2 0x482 JUMP JUMPDEST PUSH2 0x15A PUSH2 0x5ED JUMP JUMPDEST PUSH2 0x17F PUSH2 0x24F CALLDATASIZE PUSH1 0x4 PUSH2 0xCB8 JUMP JUMPDEST PUSH1 0x1 PUSH1 0x1 PUSH1 0xA0 SHL SUB AND PUSH1 0x0 SWAP1 DUP2 MSTORE PUSH1 0x5 PUSH1 0x20 MSTORE PUSH1 0x40 SWAP1 KECCAK256 SLOAD PUSH1 0xFF AND SWAP1 JUMP JUMPDEST PUSH1 0x0 SLOAD PUSH1 0x40 DUP1 MLOAD PUSH1 0x1 PUSH1 0x1 PUSH1 0xA0 SHL SUB SWAP1 SWAP3 AND DUP3 MSTORE ADDRESS PUSH1 0x20 DUP4 ADD MSTORE NUMBER SWAP1 DUP3 ADD MSTORE PUSH1 0x60 ADD PUSH2 0x18B JUMP JUMPDEST PUSH2 0x15A PUSH2 0x2A2 CALLDATASIZE PUSH1 0x4 PUSH2 0xCB8 JUMP JUMPDEST PUSH2 0x619 JUMP JUMPDEST PUSH1 0x0 SLOAD PUSH2 0x2BA SWAP1 PUSH1 0x1 PUSH1 0x1 PUSH1 0xA0 SHL SUB AND DUP2 JUMP JUMPDEST PUSH1 0x40 MLOAD PUSH1 0x1 PUSH1 0x1 PUSH1 0xA0 SHL SUB SWAP1 SWAP2 AND DUP2 MSTORE PUSH1 0x20 ADD PUSH2 0x18B JUMP JUMPDEST PUSH2 0x17F PUSH2 0x2E0 CALLDATASIZE PUSH1 0x4 PUSH2 0xDC8 JUMP JUMPDEST PUSH2 0x68A JUMP JUMPDEST PUSH2 0x15A PUSH2 0x2F3 CALLDATASIZE PUSH1 0x4 PUSH2 0xCB8 JUMP JUMPDEST PUSH2 0x6F4 JUMP JUMPDEST PUSH2 0x15A PUSH2 0x306 CALLDATASIZE PUSH1 0x4 PUSH2 0xDC8 JUMP JUMPDEST PUSH2 0x80E JUMP JUMPDEST PUSH2 0x2BA PUSH2 0x319 CALLDATASIZE PUSH1 0x4 PUSH2 0xD8B JUMP JUMPDEST DUP1 MLOAD PUSH1 0x20 DUP2 DUP4 ADD DUP2 ADD DUP1 MLOAD PUSH1 0x4 DUP3 MSTORE SWAP3 DUP3 ADD SWAP2 SWAP1 SWAP4 ADD KECCAK256 SWAP2 MSTORE SLOAD PUSH1 0x1 PUSH1 0x1 PUSH1 0xA0 SHL SUB AND DUP2 JUMP JUMPDEST PUSH2 0x352 PUSH2 0x34D CALLDATASIZE PUSH1 0x4 PUSH2 0xD8B JUMP JUMPDEST PUSH2 0xA43 JUMP JUMPDEST PUSH1 0x40 DUP1 MLOAD SWAP4 DUP5 MSTORE PUSH1 0x20 DUP5 ADD SWAP3 SWAP1 SWAP3 MSTORE PUSH1 0x1 PUSH1 0x1 PUSH1 0xA0 SHL SUB AND SWAP1 DUP3 ADD MSTORE PUSH1 0x60 ADD PUSH2 0x18B JUMP JUMPDEST PUSH2 0x1ED PUSH2 0x384 CALLDATASIZE PUSH1 0x4 PUSH2 0xD8B JUMP JUMPDEST PUSH2 0xAFC JUMP JUMPDEST PUSH2 0x17F PUSH2 0x397 CALLDATASIZE PUSH1 0x4 PUSH2 0xD8B JUMP JUMPDEST PUSH2 0xB63 JUMP JUMPDEST PUSH2 0x17F PUSH2 0x3AA CALLDATASIZE PUSH1 0x4 PUSH2 0xCB8 JUMP JUMPDEST PUSH1 0x5 PUSH1 0x20 MSTORE PUSH1 0x0 SWAP1 DUP2 MSTORE PUSH1 0x40 SWAP1 KECCAK256 SLOAD PUSH1 0xFF AND DUP2 JUMP JUMPDEST PUSH1 0x0 PUSH2 0x1ED JUMP JUMPDEST PUSH2 0x15A PUSH2 0x3D4 CALLDATASIZE PUSH1 0x4 PUSH2 0xCB8 JUMP JUMPDEST PUSH2 0xB8E JUMP JUMPDEST PUSH2 0x17F PUSH2 0x3E7 CALLDATASIZE PUSH1 0x4 PUSH2 0xCB8 JUMP JUMPDEST PUSH1 0x1 PUSH1 0x1 PUSH1 0xA0 SHL SUB AND PUSH1 0x0 SWAP1 DUP2 MSTORE PUSH1 0x6 PUSH1 0x20 MSTORE PUSH1 0x40 SWAP1 KECCAK256 SLOAD PUSH1 0xFF AND SWAP1 JUMP JUMPDEST PUSH1 0x0 SLOAD PUSH1 0x1 PUSH1 0x1 PUSH1 0xA0 SHL SUB AND CALLER EQ PUSH2 0x438 JUMPI PUSH1 0x40 MLOAD PUSH3 0x461BCD PUSH1 0xE5 SHL DUP2 MSTORE PUSH1 0x4 ADD PUSH2 0x42F SWAP1 PUSH2 0xE0D JUMP JUMPDEST PUSH1 0x40 MLOAD DUP1 SWAP2 SUB SWAP1 REVERT JUMPDEST PUSH1 0x1 PUSH1 0x1 PUSH1 0xA0 SHL SUB DUP2 AND PUSH2 0x45E JUMPI PUSH1 0x40 MLOAD PUSH3 0x461BCD PUSH1 0xE5 SHL DUP2 MSTORE PUSH1 0x4 ADD PUSH2 0x42F SWAP1 PUSH2 0xE4F JUMP JUMPDEST PUSH1 0x1 PUSH1 0x1 PUSH1 0xA0 SHL SUB AND PUSH1 0x0 SWAP1 DUP2 MSTORE PUSH1 0x6 PUSH1 0x20 MSTORE PUSH1 0x40 SWAP1 KECCAK256 DUP1 SLOAD PUSH1 0xFF NOT AND PUSH1 0x1 OR SWAP1 SSTORE JUMP JUMPDEST PUSH1 0x0 SLOAD PUSH1 0x1 PUSH1 0x1 PUSH1 0xA0 SHL SUB AND CALLER EQ PUSH2 0x4AC JUMPI PUSH1 0x40 MLOAD PUSH3 0x461BCD PUSH1 0xE5 SHL DUP2 MSTORE PUSH1 0x4 ADD PUSH2 0x42F SWAP1 PUSH2 0xE0D JUMP JUMPDEST PUSH1 0x1 PUSH1 0x1 PUSH1 0xA0 SHL SUB DUP2 AND PUSH2 0x4D2 JUMPI PUSH1 0x40 MLOAD PUSH3 0x461BCD PUSH1 0xE5 SHL DUP2 MSTORE PUSH1 0x4 ADD PUSH2 0x42F SWAP1 PUSH2 0xE4F JUMP JUMPDEST PUSH1 0x1 PUSH1 0x1 PUSH1 0xA0 SHL SUB DUP2 AND PUSH1 0x0 SWAP1 DUP2 MSTORE PUSH1 0x5 PUSH1 0x20 MSTORE PUSH1 0x40 SWAP1 KECCAK256 SLOAD PUSH1 0xFF AND PUSH2 0x52C JUMPI PUSH1 0x40 MLOAD PUSH3 0x461BCD PUSH1 0xE5 SHL DUP2 MSTORE PUSH1 0x20 PUSH1 0x4 DUP3 ADD MSTORE PUSH1 0xF PUSH1 0x24 DUP3 ADD MSTORE PUSH15 0x139BDD08185B881BD9999A58DA585B PUSH1 0x8A SHL PUSH1 0x44 DUP3 ADD MSTORE PUSH1 0x64 ADD PUSH2 0x42F JUMP JUMPDEST PUSH1 0x0 SLOAD PUSH1 0x1 PUSH1 0x1 PUSH1 0xA0 SHL SUB SWAP1 DUP2 AND SWAP1 DUP3 AND SUB PUSH2 0x580 JUMPI PUSH1 0x40 MLOAD PUSH3 0x461BCD PUSH1 0xE5 SHL DUP2 MSTORE PUSH1 0x20 PUSH1 0x4 DUP3 ADD MSTORE PUSH1 0x13 PUSH1 0x24 DUP3 ADD MSTORE PUSH19 0x21B0B73737BA103932B6B7BB329037BBB732B9 PUSH1 0x69 SHL PUSH1 0x44 DUP3 ADD MSTORE PUSH1 0x64 ADD PUSH2 0x42F JUMP JUMPDEST PUSH1 0x1 PUSH1 0x1 PUSH1 0xA0 SHL SUB DUP2 AND PUSH1 0x0 DUP2 DUP2 MSTORE PUSH1 0x5 PUSH1 0x20 SWAP1 DUP2 MSTORE PUSH1 0x40 DUP1 DUP4 KECCAK256 DUP1 SLOAD PUSH1 0xFF NOT SWAP1 DUP2 AND SWAP1 SWAP2 SSTORE PUSH1 0x6 DUP4 MSTORE SWAP3 DUP2 SWAP1 KECCAK256 DUP1 SLOAD SWAP1 SWAP4 AND SWAP1 SWAP3 SSTORE SWAP1 MLOAD TIMESTAMP DUP2 MSTORE CALLER SWAP3 SWAP2 PUSH32 0x6E5AAD67F2B9D7840F6FFB940F351962D8ECC8AB2127C3971ECE106AE91EF6C8 SWAP2 ADD JUMPDEST PUSH1 0x40 MLOAD DUP1 SWAP2 SUB SWAP1 LOG3 POP JUMP JUMPDEST PUSH1 0x0 SLOAD PUSH1 0x1 PUSH1 0x1 PUSH1 0xA0 SHL SUB AND CALLER EQ PUSH2 0x617 JUMPI PUSH1 0x40 MLOAD PUSH3 0x461BCD PUSH1 0xE5 SHL DUP2 MSTORE PUSH1 0x4 ADD PUSH2 0x42F SWAP1 PUSH2 0xE0D JUMP JUMPDEST JUMP JUMPDEST PUSH1 0x0 SLOAD PUSH1 0x1 PUSH1 0x1 PUSH1 0xA0 SHL SUB AND CALLER EQ PUSH2 0x643 JUMPI PUSH1 0x40 MLOAD PUSH3 0x461BCD PUSH1 0xE5 SHL DUP2 MSTORE PUSH1 0x4 ADD PUSH2 0x42F SWAP1 PUSH2 0xE0D JUMP JUMPDEST PUSH1 0x1 PUSH1 0x1 PUSH1 0xA0 SHL SUB DUP2 AND PUSH2 0x669 JUMPI PUSH1 0x40 MLOAD PUSH3 0x461BCD PUSH1 0xE5 SHL DUP2 MSTORE PUSH1 0x4 ADD PUSH2 0x42F SWAP1 PUSH2 0xE4F JUMP JUMPDEST PUSH1 0x1 PUSH1 0x1 PUSH1 0xA0 SHL SUB AND PUSH1 0x0 SWAP1 DUP2 MSTORE PUSH1 0x6 PUSH1 0x20 MSTORE PUSH1 0x40 SWAP1 KECCAK256 DUP1 SLOAD PUSH1 0xFF NOT AND SWAP1 SSTORE JUMP JUMPDEST PUSH1 0x0 PUSH1 0x2 DUP4 PUSH1 0x40 MLOAD PUSH2 0x69C SWAP2 SWAP1 PUSH2 0xE78 JUMP JUMPDEST SWAP1 DUP2 MSTORE PUSH1 0x40 MLOAD SWAP1 DUP2 SWAP1 SUB PUSH1 0x20 ADD SWAP1 KECCAK256 SLOAD PUSH1 0xFF AND PUSH2 0x6CB JUMPI PUSH1 0x40 MLOAD PUSH3 0x461BCD PUSH1 0xE5 SHL DUP2 MSTORE PUSH1 0x4 ADD PUSH2 0x42F SWAP1 PUSH2 0xEA7 JUMP JUMPDEST DUP2 PUSH1 0x1 DUP5 PUSH1 0x40 MLOAD PUSH2 0x6DC SWAP2 SWAP1 PUSH2 0xE78 JUMP JUMPDEST SWAP1 DUP2 MSTORE PUSH1 0x20 ADD PUSH1 0x40 MLOAD DUP1 SWAP2 SUB SWAP1 KECCAK256 SLOAD EQ SWAP1 POP SWAP3 SWAP2 POP POP JUMP JUMPDEST PUSH1 0x0 SLOAD PUSH1 0x1 PUSH1 0x1 PUSH1 0xA0 SHL SUB AND CALLER EQ PUSH2 0x71E JUMPI PUSH1 0x40 MLOAD PUSH3 0x461BCD PUSH1 0xE5 SHL DUP2 MSTORE PUSH1 0x4 ADD PUSH2 0x42F SWAP1 PUSH2 0xE0D JUMP JUMPDEST PUSH1 0x1 PUSH1 0x1 PUSH1 0xA0 SHL SUB DUP2 AND PUSH2 0x744 JUMPI PUSH1 0x40 MLOAD PUSH3 0x461BCD PUSH1 0xE5 SHL DUP2 MSTORE PUSH1 0x4 ADD PUSH2 0x42F SWAP1 PUSH2 0xE4F JUMP JUMPDEST PUSH1 0x1 PUSH1 0x1 PUSH1 0xA0 SHL SUB DUP2 AND PUSH1 0x0 SWAP1 DUP2 MSTORE PUSH1 0x5 PUSH1 0x20 MSTORE PUSH1 0x40 SWAP1 KECCAK256 SLOAD PUSH1 0xFF AND ISZERO PUSH2 0x7A3 JUMPI PUSH1 0x40 MLOAD PUSH3 0x461BCD PUSH1 0xE5 SHL DUP2 MSTORE PUSH1 0x20 PUSH1 0x4 DUP3 ADD MSTORE PUSH1 0x13 PUSH1 0x24 DUP3 ADD MSTORE PUSH19 0x105B1C9958591E48185B881BD9999A58DA585B PUSH1 0x6A SHL PUSH1 0x44 DUP3 ADD MSTORE PUSH1 0x64 ADD PUSH2 0x42F JUMP JUMPDEST PUSH1 0x1 PUSH1 0x1 PUSH1 0xA0 SHL SUB DUP2 AND PUSH1 0x0 DUP2 DUP2 MSTORE PUSH1 0x5 PUSH1 0x20 SWAP1 DUP2 MSTORE PUSH1 0x40 DUP1 DUP4 KECCAK256 DUP1 SLOAD PUSH1 0x1 PUSH1 0xFF NOT SWAP2 DUP3 AND DUP2 OR SWAP1 SWAP3 SSTORE PUSH1 0x6 DUP5 MSTORE SWAP4 DUP3 SWAP1 KECCAK256 DUP1 SLOAD SWAP1 SWAP5 AND OR SWAP1 SWAP3 SSTORE SWAP1 MLOAD TIMESTAMP DUP2 MSTORE CALLER SWAP3 SWAP2 PUSH32 0xBAE69E687193701A035224740DE1573DEB6DB1011F61CBAA973B6452F5D78ABA SWAP2 ADD PUSH2 0x5E2 JUMP JUMPDEST CALLER PUSH1 0x0 SWAP1 DUP2 MSTORE PUSH1 0x5 PUSH1 0x20 MSTORE PUSH1 0x40 SWAP1 KECCAK256 SLOAD PUSH1 0xFF AND DUP1 PUSH2 0x836 JUMPI POP PUSH1 0x0 SLOAD PUSH1 0x1 PUSH1 0x1 PUSH1 0xA0 SHL SUB AND CALLER EQ JUMPDEST PUSH2 0x891 JUMPI PUSH1 0x40 MLOAD PUSH3 0x461BCD PUSH1 0xE5 SHL DUP2 MSTORE PUSH1 0x20 PUSH1 0x4 DUP3 ADD MSTORE PUSH1 0x26 PUSH1 0x24 DUP3 ADD MSTORE PUSH32 0x4F6E6C79206F6666696369616C732063616E20706572666F726D207468697320 PUSH1 0x44 DUP3 ADD MSTORE PUSH6 0x30B1BA34B7B7 PUSH1 0xD1 SHL PUSH1 0x64 DUP3 ADD MSTORE PUSH1 0x84 ADD PUSH2 0x42F JUMP JUMPDEST PUSH1 0x2 DUP3 PUSH1 0x40 MLOAD PUSH2 0x8A1 SWAP2 SWAP1 PUSH2 0xE78 JUMP JUMPDEST SWAP1 DUP2 MSTORE PUSH1 0x40 MLOAD SWAP1 DUP2 SWAP1 SUB PUSH1 0x20 ADD SWAP1 KECCAK256 SLOAD PUSH1 0xFF AND ISZERO PUSH2 0x901 JUMPI PUSH1 0x40 MLOAD PUSH3 0x461BCD PUSH1 0xE5 SHL DUP2 MSTORE PUSH1 0x20 PUSH1 0x4 DUP3 ADD MSTORE PUSH1 0x17 PUSH1 0x24 DUP3 ADD MSTORE PUSH32 0x446F63756D656E7420616C726561647920657869737473000000000000000000 PUSH1 0x44 DUP3 ADD MSTORE PUSH1 0x64 ADD PUSH2 0x42F JUMP JUMPDEST DUP1 PUSH2 0x93D JUMPI PUSH1 0x40 MLOAD PUSH3 0x461BCD PUSH1 0xE5 SHL DUP2 MSTORE PUSH1 0x20 PUSH1 0x4 DUP3 ADD MSTORE PUSH1 0xC PUSH1 0x24 DUP3 ADD MSTORE PUSH12 0x92DCECC2D8D2C840D0C2E6D PUSH1 0xA3 SHL PUSH1 0x44 DUP3 ADD MSTORE PUSH1 0x64 ADD PUSH2 0x42F JUMP JUMPDEST DUP1 PUSH1 0x1 DUP4 PUSH1 0x40 MLOAD PUSH2 0x94E SWAP2 SWAP1 PUSH2 0xE78 JUMP JUMPDEST SWAP1 DUP2 MSTORE PUSH1 0x20 ADD PUSH1 0x40 MLOAD DUP1 SWAP2 SUB SWAP1 KECCAK256 DUP2 SWAP1 SSTORE POP PUSH1 0x1 PUSH1 0x2 DUP4 PUSH1 0x40 MLOAD PUSH2 0x972 SWAP2 SWAP1 PUSH2 0xE78 JUMP JUMPDEST SWAP1 DUP2 MSTORE PUSH1 0x40 MLOAD SWAP1 DUP2 SWAP1 SUB PUSH1 0x20 ADD DUP2 KECCAK256 DUP1 SLOAD SWAP3 ISZERO ISZERO PUSH1 0xFF NOT SWAP1 SWAP4 AND SWAP3 SWAP1 SWAP3 OR SWAP1 SWAP2 SSTORE TIMESTAMP SWAP1 PUSH1 0x3 SWAP1 PUSH2 0x9A3 SWAP1 DUP6 SWAP1 PUSH2 0xE78 JUMP JUMPDEST SWAP1 DUP2 MSTORE PUSH1 0x20 ADD PUSH1 0x40 MLOAD DUP1 SWAP2 SUB SWAP1 KECCAK256 DUP2 SWAP1 SSTORE POP CALLER PUSH1 0x4 DUP4 PUSH1 0x40 MLOAD PUSH2 0x9C6 SWAP2 SWAP1 PUSH2 0xE78 JUMP JUMPDEST SWAP1 DUP2 MSTORE PUSH1 0x40 MLOAD SWAP1 DUP2 SWAP1 SUB PUSH1 0x20 ADD DUP2 KECCAK256 DUP1 SLOAD PUSH1 0x1 PUSH1 0x1 PUSH1 0xA0 SHL SUB SWAP4 SWAP1 SWAP4 AND PUSH1 0x1 PUSH1 0x1 PUSH1 0xA0 SHL SUB NOT SWAP1 SWAP4 AND SWAP3 SWAP1 SWAP3 OR SWAP1 SWAP2 SSTORE CALLER SWAP1 DUP3 SWAP1 PUSH2 0xA05 SWAP1 DUP6 SWAP1 PUSH2 0xE78 JUMP JUMPDEST PUSH1 0x40 MLOAD SWAP1 DUP2 SWAP1 SUB DUP2 KECCAK256 TIMESTAMP DUP3 MSTORE SWAP1 PUSH32 0x428C9B1F891E75BBBD77FC22237E9A953F0E793DE64CC68070A7C32203342563 SWAP1 PUSH1 0x20 ADD PUSH1 0x40 MLOAD DUP1 SWAP2 SUB SWAP1 LOG4 POP POP JUMP JUMPDEST PUSH1 0x0 DUP1 PUSH1 0x0 PUSH1 0x2 DUP5 PUSH1 0x40 MLOAD PUSH2 0xA58 SWAP2 SWAP1 PUSH2 0xE78 JUMP JUMPDEST SWAP1 DUP2 MSTORE PUSH1 0x40 MLOAD SWAP1 DUP2 SWAP1 SUB PUSH1 0x20 ADD SWAP1 KECCAK256 SLOAD PUSH1 0xFF AND PUSH2 0xA87 JUMPI PUSH1 0x40 MLOAD PUSH3 0x461BCD PUSH1 0xE5 SHL DUP2 MSTORE PUSH1 0x4 ADD PUSH2 0x42F SWAP1 PUSH2 0xEA7 JUMP JUMPDEST PUSH1 0x1 DUP5 PUSH1 0x40 MLOAD PUSH2 0xA97 SWAP2 SWAP1 PUSH2 0xE78 JUMP JUMPDEST SWAP1 DUP2 MSTORE PUSH1 0x20 ADD PUSH1 0x40 MLOAD DUP1 SWAP2 SUB SWAP1 KECCAK256 SLOAD PUSH1 0x3 DUP6 PUSH1 0x40 MLOAD PUSH2 0xAB6 SWAP2 SWAP1 PUSH2 0xE78 JUMP JUMPDEST SWAP1 DUP2 MSTORE PUSH1 0x20 ADD PUSH1 0x40 MLOAD DUP1 SWAP2 SUB SWAP1 KECCAK256 SLOAD PUSH1 0x4 DUP7 PUSH1 0x40 MLOAD PUSH2 0xAD5 SWAP2 SWAP1 PUSH2 0xE78 JUMP JUMPDEST SWAP1 DUP2 MSTORE PUSH1 0x40 MLOAD SWAP1 DUP2 SWAP1 SUB PUSH1 0x20 ADD SWAP1 KECCAK256 SLOAD SWAP2 SWAP5 POP SWAP3 POP PUSH1 0x1 PUSH1 0x1 PUSH1 0xA0 SHL SUB AND SWAP1 POP SWAP2 SWAP4 SWAP1 SWAP3 POP JUMP JUMPDEST PUSH1 0x0 PUSH1 0x2 DUP3 PUSH1 0x40 MLOAD PUSH2 0xB0E SWAP2 SWAP1 PUSH2 0xE78 JUMP JUMPDEST SWAP1 DUP2 MSTORE PUSH1 0x40 MLOAD SWAP1 DUP2 SWAP1 SUB PUSH1 0x20 ADD SWAP1 KECCAK256 SLOAD PUSH1 0xFF AND PUSH2 0xB3D JUMPI PUSH1 0x40 MLOAD PUSH3 0x461BCD PUSH1 0xE5 SHL DUP2 MSTORE PUSH1 0x4 ADD PUSH2 0x42F SWAP1 PUSH2 0xEA7 JUMP JUMPDEST PUSH1 0x1 DUP3 PUSH1 0x40 MLOAD PUSH2 0xB4D SWAP2 SWAP1 PUSH2 0xE78 JUMP JUMPDEST SWAP1 DUP2 MSTORE PUSH1 0x20 ADD PUSH1 0x40 MLOAD DUP1 SWAP2 SUB SWAP1 KECCAK256 SLOAD SWAP1 POP SWAP2 SWAP1 POP JUMP JUMPDEST PUSH1 0x0 PUSH1 0x2 DUP3 PUSH1 0x40 MLOAD PUSH2 0xB75 SWAP2 SWAP1 PUSH2 0xE78 JUMP JUMPDEST SWAP1 DUP2 MSTORE PUSH1 0x40 MLOAD SWAP1 DUP2 SWAP1 SUB PUSH1 0x20 ADD SWAP1 KECCAK256 SLOAD PUSH1 0xFF AND SWAP3 SWAP2 POP POP JUMP JUMPDEST PUSH1 0x0 SLOAD PUSH1 0x1 PUSH1 0x1 PUSH1 0xA0 SHL SUB AND CALLER EQ PUSH2 0xBB8 JUMPI PUSH1 0x40 MLOAD PUSH3 0x461BCD PUSH1 0xE5 SHL DUP2 MSTORE PUSH1 0x4 ADD PUSH2 0x42F SWAP1 PUSH2 0xE0D JUMP JUMPDEST PUSH1 0x1 PUSH1 0x1 PUSH1 0xA0 SHL SUB DUP2 AND PUSH2 0xBDE JUMPI PUSH1 0x40 MLOAD PUSH3 0x461BCD PUSH1 0xE5 SHL DUP2 MSTORE PUSH1 0x4 ADD PUSH2 0x42F SWAP1 PUSH2 0xE4F JUMP JUMPDEST PUSH1 0x0 SLOAD PUSH1 0x1 PUSH1 0x1 PUSH1 0xA0 SHL SUB SWAP1 DUP2 AND SWAP1 DUP3 AND SUB PUSH2 0xC30 JUMPI PUSH1 0x40 MLOAD PUSH3 0x461BCD PUSH1 0xE5 SHL DUP2 MSTORE PUSH1 0x20 PUSH1 0x4 DUP3 ADD MSTORE PUSH1 0x11 PUSH1 0x24 DUP3 ADD MSTORE PUSH17 0x20B63932B0B23C903A34329037BBB732B9 PUSH1 0x79 SHL PUSH1 0x44 DUP3 ADD MSTORE PUSH1 0x64 ADD PUSH2 0x42F JUMP JUMPDEST PUSH1 0x0 DUP1 SLOAD PUSH1 0x1 PUSH1 0x1 PUSH1 0xA0 SHL SUB NOT DUP2 AND PUSH1 0x1 PUSH1 0x1 PUSH1 0xA0 SHL SUB DUP5 DUP2 AND SWAP2 DUP3 OR DUP5 SSTORE DUP2 DUP5 MSTORE PUSH1 0x5 PUSH1 0x20 SWAP1 DUP2 MSTORE PUSH1 0x40 DUP1 DUP7 KECCAK256 DUP1 SLOAD PUSH1 0xFF NOT SWAP1 DUP2 AND PUSH1 0x1 SWAP1 DUP2 OR SWAP1 SWAP3 SSTORE PUSH1 0x6 DUP5 MSTORE SWAP7 DUP3 SWAP1 KECCAK256 DUP1 SLOAD SWAP1 SWAP8 AND OR SWAP1 SWAP6 SSTORE SWAP4 MLOAD TIMESTAMP DUP2 MSTORE SWAP3 AND SWAP3 DUP4 SWAP3 PUSH32 0xBAE69E687193701A035224740DE1573DEB6DB1011F61CBAA973B6452F5D78ABA SWAP2 ADD PUSH1 0x40 MLOAD DUP1 SWAP2 SUB SWAP1 LOG3 POP POP JUMP JUMPDEST PUSH1 0x0 PUSH1 0x20 DUP3 DUP5 SUB SLT ISZERO PUSH2 0xCCA JUMPI PUSH1 0x0 DUP1 REVERT JUMPDEST DUP2 CALLDATALOAD PUSH1 0x1 PUSH1 0x1 PUSH1 0xA0 SHL SUB DUP2 AND DUP2 EQ PUSH2 0xCE1 JUMPI PUSH1 0x0 DUP1 REVERT JUMPDEST SWAP4 SWAP3 POP POP POP JUMP JUMPDEST PUSH4 0x4E487B71 PUSH1 0xE0 SHL PUSH1 0x0 MSTORE PUSH1 0x41 PUSH1 0x4 MSTORE PUSH1 0x24 PUSH1 0x0 REVERT JUMPDEST PUSH1 0x0 DUP3 PUSH1 0x1F DUP4 ADD SLT PUSH2 0xD0F JUMPI PUSH1 0x0 DUP1 REVERT JUMPDEST DUP2 CALLDATALOAD PUSH8 0xFFFFFFFFFFFFFFFF DUP1 DUP3 GT ISZERO PUSH2 0xD2A JUMPI PUSH2 0xD2A PUSH2 0xCE8 JUMP JUMPDEST PUSH1 0x40 MLOAD PUSH1 0x1F DUP4 ADD PUSH1 0x1F NOT SWAP1 DUP2 AND PUSH1 0x3F ADD AND DUP2 ADD SWAP1 DUP3 DUP3 GT DUP2 DUP4 LT OR ISZERO PUSH2 0xD52 JUMPI PUSH2 0xD52 PUSH2 0xCE8 JUMP JUMPDEST DUP2 PUSH1 0x40 MSTORE DUP4 DUP2 MSTORE DUP7 PUSH1 0x20 DUP6 DUP9 ADD ADD GT ISZERO PUSH2 0xD6B JUMPI PUSH1 0x0 DUP1 REVERT JUMPDEST DUP4 PUSH1 0x20 DUP8 ADD PUSH1 0x20 DUP4 ADD CALLDATACOPY PUSH1 0x0 PUSH1 0x20 DUP6 DUP4 ADD ADD MSTORE DUP1 SWAP5 POP POP POP POP POP SWAP3 SWAP2 POP POP JUMP JUMPDEST PUSH1 0x0 PUSH1 0x20 DUP3 DUP5 SUB SLT ISZERO PUSH2 0xD9D JUMPI PUSH1 0x0 DUP1 REVERT JUMPDEST DUP2 CALLDATALOAD PUSH8 0xFFFFFFFFFFFFFFFF DUP2 GT ISZERO PUSH2 0xDB4 JUMPI PUSH1 0x0 DUP1 REVERT JUMPDEST PUSH2 0xDC0 DUP5 DUP3 DUP6 ADD PUSH2 0xCFE JUMP JUMPDEST SWAP5 SWAP4 POP POP POP POP JUMP JUMPDEST PUSH1 0x0 DUP1 PUSH1 0x40 DUP4 DUP6 SUB SLT ISZERO PUSH2 0xDDB JUMPI PUSH1 0x0 DUP1 REVERT JUMPDEST DUP3 CALLDATALOAD PUSH8 0xFFFFFFFFFFFFFFFF DUP2 GT ISZERO PUSH2 0xDF2 JUMPI PUSH1 0x0 DUP1 REVERT JUMPDEST PUSH2 0xDFE DUP6 DUP3 DUP7 ADD PUSH2 0xCFE JUMP JUMPDEST SWAP6 PUSH1 0x20 SWAP5 SWAP1 SWAP5 ADD CALLDATALOAD SWAP5 POP POP POP POP JUMP JUMPDEST PUSH1 0x20 DUP1 DUP3 MSTORE PUSH1 0x22 SWAP1 DUP3 ADD MSTORE PUSH32 0x4F6E6C79206F776E65722063616E20706572666F726D20746869732061637469 PUSH1 0x40 DUP3 ADD MSTORE PUSH2 0x37B7 PUSH1 0xF1 SHL PUSH1 0x60 DUP3 ADD MSTORE PUSH1 0x80 ADD SWAP1 JUMP JUMPDEST PUSH1 0x20 DUP1 DUP3 MSTORE PUSH1 0xF SWAP1 DUP3 ADD MSTORE PUSH15 0x496E76616C69642061646472657373 PUSH1 0x88 SHL PUSH1 0x40 DUP3 ADD MSTORE PUSH1 0x60 ADD SWAP1 JUMP JUMPDEST PUSH1 0x0 DUP3 MLOAD PUSH1 0x0 JUMPDEST DUP2 DUP2 LT ISZERO PUSH2 0xE99 JUMPI PUSH1 0x20 DUP2 DUP7 ADD DUP2 ADD MLOAD DUP6 DUP4 ADD MSTORE ADD PUSH2 0xE7F JUMP JUMPDEST POP PUSH1 0x0 SWAP3 ADD SWAP2 DUP3 MSTORE POP SWAP2 SWAP1 POP JUMP JUMPDEST PUSH1 0x20 DUP1 DUP3 MSTORE PUSH1 0x17 SWAP1 DUP3 ADD MSTORE PUSH32 0x446F63756D656E7420646F6573206E6F74206578697374000000000000000000 PUSH1 0x40 DUP3 ADD MSTORE PUSH1 0x60 ADD SWAP1 JUMP INVALID LOG2 PUSH5 0x6970667358 0x22 SLT KECCAK256 0x4D CALLER PUSH6 0x5CDF6728566C MOD 0xE5 0xEE EXTCODEHASH SLOAD 0xE3 0xCA BALANCE NOT SLT OR RETURNDATACOPY PUSH15 0x1466D07DEA2728F1234F64736F6C63 NUMBER STOP ADDMOD SGT STOP CALLER "},"methodIdentifiers":{"addAuthorizedUser(address)":"177d2a74","addOfficial(address)":"ac840db0","authorizedUsers(address)":"1828983a","documentExists(string)":"3026785f","documentExistsCheck(string)":"bed53522","documentHashes(string)":"4d17857f","documentRecorders(string)":"b5efdbe2","documentTimestamps(string)":"3df77011","emergencyPause()":"51858e27","getContractInfo()":"7cc1f867","getDocumentHash(string)":"bb6ccd94","getDocumentMetadata(string)":"b94c6704","getTotalDocuments()":"e90e7ad4","isAuthorized(address)":"fe9fbb80","isOfficial(address)":"77b81aac","officials(address)":"d93321ef","owner()":"8da5cb5b","recordDocumentHash(string,bytes32)":"b08bf568","removeAuthorizedUser(address)":"89fabc80","removeOfficial(address)":"4fea4954","transferOwnership(address)":"f2fde38b","verifyDocumentHash(string,bytes32)":"a9307df5"}}}}}