{
  "_format": "hh-sol-artifact-1",
  "contractName": "SecureLand",
  "sourceName": "contracts/SecureLand.sol",
  "abi": [
    {
      "inputs": [],
      "stateMutability": "nonpayable",
      "type": "constructor"
    },
    {
      "anonymous": false,
      "inputs": [
        {
          "indexed": true,
          "internalType": "string",
          "name": "documentId",
          "type": "string"
        },
        {
          "indexed": true,
          "internalType": "bytes32",
          "name": "hash",
          "type": "bytes32"
        },
        {
          "indexed": true,
          "internalType": "address",
          "name": "recorder",
          "type": "address"
        },
        {
          "indexed": false,
          "internalType": "uint256",
          "name": "timestamp",
          "type": "uint256"
        }
      ],
      "name": "DocumentRecorded",
      "type": "event"
    },
    {
      "anonymous": false,
      "inputs": [
        {
          "indexed": true,
          "internalType": "string",
          "name": "documentId",
          "type": "string"
        },
        {
          "indexed": true,
          "internalType": "bytes32",
          "name": "hash",
          "type": "bytes32"
        },
        {
          "indexed": true,
          "internalType": "address",
          "name": "verifier",
          "type": "address"
        },
        {
          "indexed": false,
          "internalType": "uint256",
          "name": "timestamp",
          "type": "uint256"
        }
      ],
      "name": "DocumentVerified",
      "type": "event"
    },
    {
      "anonymous": false,
      "inputs": [
        {
          "indexed": true,
          "internalType": "address",
          "name": "official",
          "type": "address"
        },
        {
          "indexed": true,
          "internalType": "address",
          "name": "addedBy",
          "type": "address"
        },
        {
          "indexed": false,
          "internalType": "uint256",
          "name": "timestamp",
          "type": "uint256"
        }
      ],
      "name": "OfficialAdded",
      "type": "event"
    },
    {
      "anonymous": false,
      "inputs": [
        {
          "indexed": true,
          "internalType": "address",
          "name": "official",
          "type": "address"
        },
        {
          "indexed": true,
          "internalType": "address",
          "name": "removedBy",
          "type": "address"
        },
        {
          "indexed": false,
          "internalType": "uint256",
          "name": "timestamp",
          "type": "uint256"
        }
      ],
      "name": "OfficialRemoved",
      "type": "event"
    },
    {
      "inputs": [
        {
          "internalType": "address",
          "name": "user",
          "type": "address"
        }
      ],
      "name": "addAuthorizedUser",
      "outputs": [],
      "stateMutability": "nonpayable",
      "type": "function"
    },
    {
      "inputs": [
        {
          "internalType": "address",
          "name": "official",
          "type": "address"
        }
      ],
      "name": "addOfficial",
      "outputs": [],
      "stateMutability": "nonpayable",
      "type": "function"
    },
    {
      "inputs": [
        {
          "internalType": "address",
          "name": "",
          "type": "address"
        }
      ],
      "name": "authorizedUsers",
      "outputs": [
        {
          "internalType": "bool",
          "name": "",
          "type": "bool"
        }
      ],
      "stateMutability": "view",
      "type": "function"
    },
    {
      "inputs": [
        {
          "internalType": "string",
          "name": "",
          "type": "string"
        }
      ],
      "name": "documentExists",
      "outputs": [
        {
          "internalType": "bool",
          "name": "",
          "type": "bool"
        }
      ],
      "stateMutability": "view",
      "type": "function"
    },
    {
      "inputs": [
        {
          "internalType": "string",
          "name": "documentId",
          "type": "string"
        }
      ],
      "name": "documentExistsCheck",
      "outputs": [
        {
          "internalType": "bool",
          "name": "",
          "type": "bool"
        }
      ],
      "stateMutability": "view",
      "type": "function"
    },
    {
      "inputs": [
        {
          "internalType": "string",
          "name": "",
          "type": "string"
        }
      ],
      "name": "documentHashes",
      "outputs": [
        {
          "internalType": "bytes32",
          "name": "",
          "type": "bytes32"
        }
      ],
      "stateMutability": "view",
      "type": "function"
    },
    {
      "inputs": [
        {
          "internalType": "string",
          "name": "",
          "type": "string"
        }
      ],
      "name": "documentRecorders",
      "outputs": [
        {
          "internalType": "address",
          "name": "",
          "type": "address"
        }
      ],
      "stateMutability": "view",
      "type": "function"
    },
    {
      "inputs": [
        {
          "internalType": "string",
          "name": "",
          "type": "string"
        }
      ],
      "name": "documentTimestamps",
      "outputs": [
        {
          "internalType": "uint256",
          "name": "",
          "type": "uint256"
        }
      ],
      "stateMutability": "view",
      "type": "function"
    },
    {
      "inputs": [],
      "name": "emergencyPause",
      "outputs": [],
      "stateMutability": "nonpayable",
      "type": "function"
    },
    {
      "inputs": [],
      "name": "getContractInfo",
      "outputs": [
        {
          "internalType": "address",
          "name": "contractOwner",
          "type": "address"
        },
        {
          "internalType": "address",
          "name": "contractAddress",
          "type": "address"
        },
        {
          "internalType": "uint256",
          "name": "blockNumber",
          "type": "uint256"
        }
      ],
      "stateMutability": "view",
      "type": "function"
    },
    {
      "inputs": [
        {
          "internalType": "string",
          "name": "documentId",
          "type": "string"
        }
      ],
      "name": "getDocumentHash",
      "outputs": [
        {
          "internalType": "bytes32",
          "name": "",
          "type": "bytes32"
        }
      ],
      "stateMutability": "view",
      "type": "function"
    },
    {
      "inputs": [
        {
          "internalType": "string",
          "name": "documentId",
          "type": "string"
        }
      ],
      "name": "getDocumentMetadata",
      "outputs": [
        {
          "internalType": "bytes32",
          "name": "hash",
          "type": "bytes32"
        },
        {
          "internalType": "uint256",
          "name": "timestamp",
          "type": "uint256"
        },
        {
          "internalType": "address",
          "name": "recorder",
          "type": "address"
        }
      ],
      "stateMutability": "view",
      "type": "function"
    },
    {
      "inputs": [],
      "name": "getTotalDocuments",
      "outputs": [
        {
          "internalType": "uint256",
          "name": "",
          "type": "uint256"
        }
      ],
      "stateMutability": "view",
      "type": "function"
    },
    {
      "inputs": [
        {
          "internalType": "address",
          "name": "user",
          "type": "address"
        }
      ],
      "name": "isAuthorized",
      "outputs": [
        {
          "internalType": "bool",
          "name": "",
          "type": "bool"
        }
      ],
      "stateMutability": "view",
      "type": "function"
    },
    {
      "inputs": [
        {
          "internalType": "address",
          "name": "user",
          "type": "address"
        }
      ],
      "name": "isOfficial",
      "outputs": [
        {
          "internalType": "bool",
          "name": "",
          "type": "bool"
        }
      ],
      "stateMutability": "view",
      "type": "function"
    },
    {
      "inputs": [
        {
          "internalType": "address",
          "name": "",
          "type": "address"
        }
      ],
      "name": "officials",
      "outputs": [
        {
          "internalType": "bool",
          "name": "",
          "type": "bool"
        }
      ],
      "stateMutability": "view",
      "type": "function"
    },
    {
      "inputs": [],
      "name": "owner",
      "outputs": [
        {
          "internalType": "address",
          "name": "",
          "type": "address"
        }
      ],
      "stateMutability": "view",
      "type": "function"
    },
    {
      "inputs": [
        {
          "internalType": "string",
          "name": "documentId",
          "type": "string"
        },
        {
          "internalType": "bytes32",
          "name": "hash",
          "type": "bytes32"
        }
      ],
      "name": "recordDocumentHash",
      "outputs": [],
      "stateMutability": "nonpayable",
      "type": "function"
    },
    {
      "inputs": [
        {
          "internalType": "address",
          "name": "user",
          "type": "address"
        }
      ],
      "name": "removeAuthorizedUser",
      "outputs": [],
      "stateMutability": "nonpayable",
      "type": "function"
    },
    {
      "inputs": [
        {
          "internalType": "address",
          "name": "official",
          "type": "address"
        }
      ],
      "name": "removeOfficial",
      "outputs": [],
      "stateMutability": "nonpayable",
      "type": "function"
    },
    {
      "inputs": [
        {
          "internalType": "address",
          "name": "newOwner",
          "type": "address"
        }
      ],
      "name": "transferOwnership",
      "outputs": [],
      "stateMutability": "nonpayable",
      "type": "function"
    },
    {
      "inputs": [
        {
          "internalType": "string",
          "name": "documentId",
          "type": "string"
        },
        {
          "internalType": "bytes32",
          "name": "hash",
          "type": "bytes32"
        }
      ],
      "name": "verifyDocumentHash",
      "outputs": [
        {
          "internalType": "bool",
          "name": "",
          "type": "bool"
        }
      ],
      "stateMutability": "view",
      "type": "function"
    }
  ],
  "bytecode": "0x608060405234801561001057600080fd5b50600080546001600160a01b0319163390811782558152600560209081526040808320805460ff1990811660019081179092556006909352922080549091169091179055610f14806100636000396000f3fe608060405234801561001057600080fd5b50600436106101425760003560e01c8063a9307df5116100b8578063bb6ccd941161007c578063bb6ccd9414610376578063bed5352214610389578063d93321ef1461039c578063e90e7ad4146103bf578063f2fde38b146103c6578063fe9fbb80146103d957600080fd5b8063a9307df5146102d2578063ac840db0146102e5578063b08bf568146102f8578063b5efdbe21461030b578063b94c67041461033f57600080fd5b80634fea49541161010a5780634fea49541461022657806351858e271461023957806377b81aac146102415780637cc1f8671461026d57806389fabc80146102945780638da5cb5b146102a757600080fd5b8063177d2a74146101475780631828983a1461015c5780633026785f146101945780633df77011146101c25780634d17857f146101fb575b600080fd5b61015a610155366004610cb8565b610405565b005b61017f61016a366004610cb8565b60066020526000908152604090205460ff1681565b60405190151581526020015b60405180910390f35b61017f6101a2366004610d8b565b805160208183018101805160028252928201919093012091525460ff1681565b6101ed6101d0366004610d8b565b805160208183018101805160038252928201919093012091525481565b60405190815260200161018b565b6101ed610209366004610d8b565b805160208183018101805160018252928201919093012091525481565b61015a610234366004610cb8565b610482565b61015a6105ed565b61017f61024f366004610cb8565b6001600160a01b031660009081526005602052604090205460ff1690565b600054604080516001600160a01b039092168252306020830152439082015260600161018b565b61015a6102a2366004610cb8565b610619565b6000546102ba906001600160a01b031681565b6040516001600160a01b03909116815260200161018b565b61017f6102e0366004610dc8565b61068a565b61015a6102f3366004610cb8565b6106f4565b61015a610306366004610dc8565b61080e565b6102ba610319366004610d8b565b80516020818301810180516004825292820191909301209152546001600160a01b031681565b61035261034d366004610d8b565b610a43565b6040805193845260208401929092526001600160a01b03169082015260600161018b565b6101ed610384366004610d8b565b610afc565b61017f610397366004610d8b565b610b63565b61017f6103aa366004610cb8565b60056020526000908152604090205460ff1681565b60006101ed565b61015a6103d4366004610cb8565b610b8e565b61017f6103e7366004610cb8565b6001600160a01b031660009081526006602052604090205460ff1690565b6000546001600160a01b031633146104385760405162461bcd60e51b815260040161042f90610e0d565b60405180910390fd5b6001600160a01b03811661045e5760405162461bcd60e51b815260040161042f90610e4f565b6001600160a01b03166000908152600660205260409020805460ff19166001179055565b6000546001600160a01b031633146104ac5760405162461bcd60e51b815260040161042f90610e0d565b6001600160a01b0381166104d25760405162461bcd60e51b815260040161042f90610e4f565b6001600160a01b03811660009081526005602052604090205460ff1661052c5760405162461bcd60e51b815260206004820152600f60248201526e139bdd08185b881bd9999a58da585b608a1b604482015260640161042f565b6000546001600160a01b03908116908216036105805760405162461bcd60e51b815260206004820152601360248201527221b0b73737ba103932b6b7bb329037bbb732b960691b604482015260640161042f565b6001600160a01b0381166000818152600560209081526040808320805460ff199081169091556006835292819020805490931690925590514281523392917f6e5aad67f2b9d7840f6ffb940f351962d8ecc8ab2127c3971ece106ae91ef6c891015b60405180910390a350565b6000546001600160a01b031633146106175760405162461bcd60e51b815260040161042f90610e0d565b565b6000546001600160a01b031633146106435760405162461bcd60e51b815260040161042f90610e0d565b6001600160a01b0381166106695760405162461bcd60e51b815260040161042f90610e4f565b6001600160a01b03166000908152600660205260409020805460ff19169055565b600060028360405161069c9190610e78565b9081526040519081900360200190205460ff166106cb5760405162461bcd60e51b815260040161042f90610ea7565b816001846040516106dc9190610e78565b90815260200160405180910390205414905092915050565b6000546001600160a01b0316331461071e5760405162461bcd60e51b815260040161042f90610e0d565b6001600160a01b0381166107445760405162461bcd60e51b815260040161042f90610e4f565b6001600160a01b03811660009081526005602052604090205460ff16156107a35760405162461bcd60e51b8152602060048201526013602482015272105b1c9958591e48185b881bd9999a58da585b606a1b604482015260640161042f565b6001600160a01b03811660008181526005602090815260408083208054600160ff199182168117909255600684529382902080549094161790925590514281523392917fbae69e687193701a035224740de1573deb6db1011f61cbaa973b6452f5d78aba91016105e2565b3360009081526005602052604090205460ff168061083657506000546001600160a01b031633145b6108915760405162461bcd60e51b815260206004820152602660248201527f4f6e6c79206f6666696369616c732063616e20706572666f726d20746869732060448201526530b1ba34b7b760d11b606482015260840161042f565b6002826040516108a19190610e78565b9081526040519081900360200190205460ff16156109015760405162461bcd60e51b815260206004820152601760248201527f446f63756d656e7420616c726561647920657869737473000000000000000000604482015260640161042f565b8061093d5760405162461bcd60e51b815260206004820152600c60248201526b092dcecc2d8d2c840d0c2e6d60a31b604482015260640161042f565b8060018360405161094e9190610e78565b90815260200160405180910390208190555060016002836040516109729190610e78565b908152604051908190036020018120805492151560ff199093169290921790915542906003906109a3908590610e78565b908152602001604051809103902081905550336004836040516109c69190610e78565b90815260405190819003602001812080546001600160a01b03939093166001600160a01b03199093169290921790915533908290610a05908590610e78565b604051908190038120428252907f428c9b1f891e75bbbd77fc22237e9a953f0e793de64cc68070a7c322033425639060200160405180910390a45050565b6000806000600284604051610a589190610e78565b9081526040519081900360200190205460ff16610a875760405162461bcd60e51b815260040161042f90610ea7565b600184604051610a979190610e78565b908152602001604051809103902054600385604051610ab69190610e78565b908152602001604051809103902054600486604051610ad59190610e78565b9081526040519081900360200190205491945092506001600160a01b031690509193909250565b6000600282604051610b0e9190610e78565b9081526040519081900360200190205460ff16610b3d5760405162461bcd60e51b815260040161042f90610ea7565b600182604051610b4d9190610e78565b9081526020016040518091039020549050919050565b6000600282604051610b759190610e78565b9081526040519081900360200190205460ff1692915050565b6000546001600160a01b03163314610bb85760405162461bcd60e51b815260040161042f90610e0d565b6001600160a01b038116610bde5760405162461bcd60e51b815260040161042f90610e4f565b6000546001600160a01b0390811690821603610c305760405162461bcd60e51b815260206004820152601160248201527020b63932b0b23c903a34329037bbb732b960791b604482015260640161042f565b600080546001600160a01b031981166001600160a01b038481169182178455818452600560209081526040808620805460ff1990811660019081179092556006845296829020805490971617909555935142815292169283927fbae69e687193701a035224740de1573deb6db1011f61cbaa973b6452f5d78aba910160405180910390a35050565b600060208284031215610cca57600080fd5b81356001600160a01b0381168114610ce157600080fd5b9392505050565b634e487b7160e01b600052604160045260246000fd5b600082601f830112610d0f57600080fd5b813567ffffffffffffffff80821115610d2a57610d2a610ce8565b604051601f8301601f19908116603f01168101908282118183101715610d5257610d52610ce8565b81604052838152866020858801011115610d6b57600080fd5b836020870160208301376000602085830101528094505050505092915050565b600060208284031215610d9d57600080fd5b813567ffffffffffffffff811115610db457600080fd5b610dc084828501610cfe565b949350505050565b60008060408385031215610ddb57600080fd5b823567ffffffffffffffff811115610df257600080fd5b610dfe85828601610cfe565b95602094909401359450505050565b60208082526022908201527f4f6e6c79206f776e65722063616e20706572666f726d2074686973206163746960408201526137b760f11b606082015260800190565b6020808252600f908201526e496e76616c6964206164647265737360881b604082015260600190565b6000825160005b81811015610e995760208186018101518583015201610e7f565b506000920191825250919050565b60208082526017908201527f446f63756d656e7420646f6573206e6f7420657869737400000000000000000060408201526060019056fea26469706673582212204d33655cdf6728566c06e5ee3f54e3ca311912173e6e1466d07dea2728f1234f64736f6c63430008130033",
  "linkReferences": {},
  "deployedLinkReferences": {}
}